:06000000020EAB02043BFE
:03000B0002045C90
:0300130002047D67
:03001B0002049E3E
:030023000204BF15
:03002B000204FDCF
:0300330002051EA5
:03003B0002053F7C
:03004300020100B7
:03004B0002056249
:030053000205871C
:03005B000205ACEF
:030063000205D1C2
:0800E000B00400B004000001AF
:0900F00030303030303030300087
:030100000205F203
:03010400020A04E8
:03010800020A2FB9
:03010C00020A5A8A
:03011000020A855B
:0101140032B8
:03011800020AB028
:03011C00020AEBE9
:03012000020B9D32
:03012400020BCB00
:03012800020BF6D1
:03012C00020C21A1
:03013000020C4C72
:03013400020C7743
:03013800020CA214
:03013C00020CCDE5
:03014000020CF8B6
:03014400020D2386
:03014800020D4E57
:03014C00020D7928
:03015000020DA4F9
:03015400020DCFCA
:080EAB007581B0E4F5D0F58675
:060EB300E4F545F548F5E9
:040EB90049F54AF5B8
:040EBD0051F552F5A4
:040EC10053F554F59C
:040EC50055F544F5A6
:060EC9006FF56EF586D204
:0D0ECF000A758E30758921758855758D6402
:0E0EDC00758700907FA17401F0907FAF7401C4
:0E0EEA00F0E4907FE0F0907FE1F0907FDD7407
:0E0EF80009F0907FDE7407F0907FDF7405F044
:0E0F0600907FD77412F07432F07402F07422EF
:0E0F1400F0907F937400F0907F967482F090BE
:0E0F22007F9C74C2F0907F947400F0907F9DCD
:0E0F30007400F0907F9574C3F0907F98742841
:0E0F3E00F0907F9E742AF075A89275E80190DD
:0E0F4C007FAE7401F0907FAC7403F0907FAD27
:0D0F5A007401F075985275204278E7E2A20C
:0C0F6700E092089201E52090C008F09094
:0E0F7300C00C74FFF090C00DE4F090C00A7442
:0D0F81001FF078F0900E8BE26006F0A3A345
:0C0F8E000880F7E8241125E0900E89F09F
:0C0F9A00E4F570F57190D120A3E58245CC
:0E0FA6008370F9907FD6740AF07A1E90E8905E
:0E0FB400A3E582458370F9DAF4907FD67406C7
:040FC200F0120B26F8
:0E0FC600907FC8E020E1F9907FC9E0B4010DF2
:0E0FD400907DC0E0B45506907FC9F080069075
:050FE2007FC9F080DF73
:030FE7000201798B
:06015700E5454551600D75
:05015D00C201D200D236
:0801620002E52090C008F02224
:05016A00C200A2089292
:0A016F0001C202E52090C008F02252
:06017900E549B54814122F
:0A017F0002C8E4F54590C000F0103E
:09018900090280EC12015780E725
:07019200754501754E08756B
:060199004BFF754CFFE571
:0C019F00490303F58254C02400C58254BB
:0B01AB003F3410F583E0F546A3E0F5BB
:0501B6004775500278BE
:0901BB00E1E2C395475003E2F5AF
:0101C40047F3
:0B01C500E5492480F8E624FE4009759F
:0601D000460175470075B1
:0201D6005000D7
:0301D80012015DB4
:0701DB00E54624FFF546E5AF
:0801E2004734FFF547500B12F2
:0A01EA0002C8747E90C000F080E7A8
:0401F40085504F756E
:0201F8004502BE
:0701FA00E5492480F8E6B599
:090201004F2B75500020E618E5B2
:06020A004BF4120283E533
:060210004CF412028312FF
:060216000261754BFF754B
:05021C004CFF755002CB
:08022100E54904540FF549B54D
:0502290048C902024A71
:0B022E00E5490303F58254C0254F246E
:0B02390000C582543F3410F583E01232
:06024400029A054F80B094
:0A024A001202617545037A14D31205
:08025400026EDAFA7545001292
:05025C000157020179C9
:0D0261007B7E7A08EB13FB12026EDAF822A6
:06026E00E54D13F54DD52E
:060274004E0C754E08124D
:09027A0002C8E54D90C000F0221D
:0D028300FB7A08EB13FB12026EE54DF454FC
:0A029000F87004C312026EDAED22CA
:0A029A00FB7A08C3E54C13F54CE5B0
:0C02A4004B13F54BEB30E001B350066348
:0802B0004C84634B0813FB12A0
:0B02B800026EE54DF454F87004C31210
:0502C300026EDAD622F4
:0E02C80090C001E030E1012230E00312036338
:0502D600E554B553479B
:0C02DB00907FC8E020E13EE5482480F858
:0902E700E54804540FB549030277
:0202F0000360A9
:0D02F200FF907FC9E0F66020FEE5480303A1
:0C02FF00F58454C02400C584543F341022
:05030B00F585907DC0A6
:0A031000E0A30586F0A31586DEF6D3
:06031A008F48907FC9F03E
:02032000803E1D
:0C032200907FB8E020E1B2E5542490F890
:0D032E00E66020FEE5540303F58454C0246E
:0C033B0000C584543F3414F585907E000A
:0A0347000586E0A31586F0A3DEF69C
:0C035100E6907FB9F0E55404541FF55409
:03035D000202DBBE
:030360000202C8CE
:0703630090C000E0FE7F08DE
:0C036A00EE13FEE55933F559B47E030292
:0C03760003F2F4547F600EE5526007E5CE
:0603820059543FB43E088F
:03038800DFE02291
:05038B0075520080F82E
:07039000C3E55733F557E503
:050397005833F558E5A4
:0B039C005930E001B3500663572163A5
:0703A700581013E55A13F58D
:0503AE005AD55BD67575
:0B03B3005B08E5550303F58254C025EC
:0803BE005C2400C582543F34A9
:0703C60014F583E55AF00570
:0703CD005CE55C30E6B5E5DC
:0703D400552490F87640E586
:0803DB005504541FB5540675CA
:0603E3005200020388F540
:0503E90055755C0005E4
:0403EE005602038828
:0A03F200E552602FE55764F2F8E5CC
:0903FC005864A1487023E5552462
:0604050090F8E55CF6E54D
:0D040B0056700774FC265012800424F8403F
:0C0418000CE55504541FB554028002F599
:010424005384
:06042500E4F556F55C75DC
:06042B005201F4F557F543
:0504310058755B088511
:0304360053550219
:02043900038836
:0E043B00C0E0C0F0C082C083C0D075D000C049
:0E04490086758600C289D086D0D0D083D0823E
:05045700D0F0D0E032FE
:0E045C00C0E0C0F0C082C083C0D075D000C028
:0E046A0086758600C28DD086D0D0D083D08219
:05047800D0F0D0E032DD
:0E047D00C0E0C0F0C082C083C0D075D000C007
:0E048B0086758600C28BD086D0D0D083D082FA
:05049900D0F0D0E032BC
:0E049E00C0E0C0F0C082C083C0D075D000C0E6
:0E04AC0086758600C28FD086D0D0D083D082D5
:0504BA00D0F0D0E0329B
:0E04BF00C0E0C0F0C082C083C0D075D000C0C5
:0E04CD0086758600C00010981610990FD0009A
:0E04DB00D086D0D0D083D082D0F0D0E032D204
:0604E9000A80EAE56E2422
:0B04EF005EF8E599F6E56E04540FF589
:0304FA006E80DC35
:0E04FD00C0E0C0F0C082C083C0D075D000C087
:0E050B0086758600C2CFD086D0D0D083D08235
:05051900D0F0D0E0323B
:0E051E00C0E0C0F0C082C083C0D075D000C065
:0E052C0086758600C2DCD086D0D0D083D08207
:05053A00D0F0D0E0321A
:0E053F00C0E0C0F0C082C083C0D075D000C044
:0E054D0086758600C2C0C2C1D086D0D0D083D1
:07055B00D082D0F0D0E032A5
:0E056200C0E0C0F0C082C083C0D075D000C021
:0E05700086758600E591C2E5F591D086D0D063
:09057E00D083D082D0F0D0E0322D
:0E058700C0E0C0F0C082C083C0D075D000C0FC
:0E05950086758600E591C2E6F591D086D0D03D
:0905A300D083D082D0F0D0E03208
:0E05AC00C0E0C0F0C082C083C0D075D000C0D7
:0E05BA0086758600E591C2E7F591D086D0D017
:0905C800D083D082D0F0D0E032E3
:0E05D100C0E0C0F0C082C083C0D075D000C0B2
:0E05DF0086758600C2DBD086D0D0D083D08255
:0505ED00D0F0D0E03267
:0E05F200C0E0C0F0C082C083C084C085C0D00D
:0E06000075D000C086758600C000C007E59169
:0D060E00C2E4F591907FAB7401F0754000DF
:0E061B00907FE9E0B40659907FE8E0B4804F8C
:0D062900907FEBE0B4010C907FD4740DF0D5
:06063600A374FAF0803904
:0D063C00B40212907FEAE07033907FD47416
:080649000EF0A3740CF08024F4
:0E065100B40324907FEAE024FC401CE025E086
:0C065F002451F582E4340EF583E0F5F040
:0A066B00A3E0907FD4F0A3E5F0F0C7
:030675000209E98E
:030678000209E58F
:0E067B00B40941907FE8E070F4907FEAE0243B
:06068900FE40ECE0F570FC
:0E068F00907FD77807E84410F04430F0E8F090
:0E069D004420F0D8F2E4F07402907FB67807A3
:0E06AB00F0A3A3D8FB907FC67807F0A3A3D8D6
:0606B900FB120B2680B6C7
:0D06BF00B40B1A907FE8E0B401AFE570B411
:0D06CC0001AA907FECE070A4907FEAE0F5B9
:0306D9007180B37A
:0D06DC00B40A20907FE8E0B48192E570B48C
:0A06E900018D907FECE07087E57151
:0C06F300907F00F0907FB57401F0804E05
:0D06FF00B4080B907FE8E0B48047E5708000
:01070C00E606
:0B070D007044907FE8E0B4801174019C
:0E071800907F00F0A3E4F0907FB57402F080B3
:0107260026AC
:06072700B48103E480EB45
:0E072D00B48220907FECE0907FC430E7039010
:0E073B007FB4540F600F20E30C25E02582F5FB
:0407490082E080CBFF
:03074D000209E9B5
:030750000209E5B6
:08075300B4030575F0018006F6
:06075B00B4014475F0003A
:0E076100907FE8E0B402E8A3A3E070E3A3E019
:0E076F0070DFA3E0907FC430E705907FB444B4
:0E077D001020E3CF541F0586907FD7F0442054
:0E078B00F0540FF0158625E02582F582E5F08A
:03079900F080B13C
:03079C0002085FF1
:03079F000209E567
:0D07A200B4C0F7907FE8E0B4C0F3E545F582
:0D07AF00F0D2F24551B40002C2F290C00930
:0D07BC00E0A2E092F3A20A92F5E4907F041F
:0C07C900F0907F00E5F0F0E548F42549D1
:0C07D500540F907F01F0E554F42553040C
:0E07E100541F907F02F090C004E0907F03F060
:0907EF000544E544907F05F0E5A6
:0807F80045A3F0E549A3F0E57B
:0C08000048A3F0E54AA3F07400A3F0E563
:08080C0046A3F0E547A3F0E567
:0808140052A3F0E554A3F0E546
:08081C0053A3F0E555A3F0E53C
:0C08240056A3F0E55D907F12F090C0013B
:0E083000E0907F13F090C008E0907F14F090ED
:0E083E00C009E0907F15F0907FC8E0907F1613
:0D084C00F0907FEEE024E95001E4241790C5
:060859007FB5F00209E981
:0D085F00B4C819907FE8E0B4C00F74039096
:0C086C007F00F0907FB57401F00209E9F4
:030878000209E58D
:0E087B00B4C921907FE8E0B4C017907F0078E8
:0D088900F0E26005F008A380F8E82410906C
:060896007FB5F00209E944
:03089C000209E569
:0E089F00B4D04D907FE8E0B4C043907FECE011
:0C08AD00B4010A907FEAE05401F551D23A
:0108B9000935
:0C08BA00907F00E545455160027401F09C
:0D08C60090C009E054016401907F01F090A2
:0E08D300C004E0907F02F0907FEEE024FD5024
:0B08E10001E42403907FB5F00209E958
:0308EC000209E519
:0E08EF00B4D129907FE8E0B4C01F907F00785C
:0D08FD00E07F06E2F0A308DFFA907FEEE056
:0E090A0024FA5001E42406907FB5F00209E9BA
:030918000209E5EC
:0E091B00B4D220907FE8E0B44016907FEAE06E
:0E092900F5F0907F98E0A2F092E3A2F192E543
:04093700F00209E9D8
:03093B000209E5C9
:0E093E00B4D316907FE8E0B44007907FEAE063
:03094C00100A038B
:03094F000209E5B5
:05095200F5990209E91E
:0E095700B4D44D907FE8E0B4C043907FECE054
:0E096500907FEAB40107E090C00DF08008B466
:0E0973000205E090C00CF090C00EE0907F00F6
:0E098100F090C00DE0907F01F090C00CE0906F
:0E098F007F02F0907FEEE024FD5001E424038F
:07099D00907FB5F00209E9AB
:0309A4000209E560
:0E09A700B4D53B907FE8E0B4C031907FECE027
:0E09B500B40108907FEAE090C00AF090C00BF9
:0E09C300E0907F00F090C00AE0907F01F0907D
:0E09D1007FEEE024FE5001E42402907FB5F09A
:0309DF000209E921
:0309E2000209E522
:0409E5007403800215
:0209E900740296
:0409EB00907FB4F055
:0E09EF00D007D000D086D0D0D085D084D08361
:0709FD00D082D0F0D0E032FF
:0E0A0400C0E0C0F0C082C083C0D075D000C07A
:0E0A120086758600E591C2E4F591907FAB7485
:0E0A200002F0D086D0D0D083D082D0F0D0E0CB
:010A2E003295
:0E0A2F00C0E0C0F0C082C083C0D075D000C04F
:0E0A3D0086758600E591C2E4F591907FAB745A
:0E0A4B0004F0D086D0D0D083D082D0F0D0E09E
:010A5900326A
:0E0A5A00C0E0C0F0C082C083C0D075D000C024
:0E0A680086758600E591C2E4F591907FAB742F
:0E0A760008F0D086D0D0D083D082D0F0D0E06F
:010A8400323F
:0E0A8500C0E0C0F0C082C083C0D075D000C0F9
:0E0A930086758600E591C2E4F591907FAB7404
:0E0AA10010F0D086D0D0D083D082D0F0D0E03C
:010AAF003214
:0E0AB000C0E0C0F0C082C083C084C085C0D04A
:0E0ABE0075D000C086758600C000C007E591A7
:0E0ACC00C2E4F591907FA97401F0D007D0002C
:0E0ADA00D086D0D0D085D084D083D082D0F00A
:030AE800D0E03229
:0E0AEB00C0E0C0F0C082C083C084C085C0D00F
:0E0AF90075D000C086758600C000C006E5916D
:0E0B0700C2E4F591907FAA7401F0D006D000F0
:0E0B1500D086D0D0D085D084D083D082D0F0CE
:030B2300D0E032ED
:0C0B2600E545F5F0D2F24551B40002C2E2
:0D0B3200F290C009E0A2E092F3A20A92F551
:0C0B3F00D3E554B55306907FB8E0A2E166
:0C0B4B0092F4907E80E5F0F0E548F4257F
:0B0B570049540F907E81F0E554F42516
:0D0B62005304541F907E82F090C004E09078
:0C0B6F007E83F00544E544907E84F07520
:0B0B7B00F005907E85E56FB56E0790D9
:0D0B86007FB7E5F0F022245EF8E6F0A3054D
:0A0B9300F0E56F04540FF56F80E3E6
:0E0B9D00C0E0C0F0C082C083C0D075D000C0E0
:0E0BAB0086758600E591C2E4F591907FA974ED
:0E0BB90002F0120B26D086D0D0D083D082D08E
:040BC700F0D0E03258
:0E0BCB00C0E0C0F0C082C083C0D075D000C0B2
:0E0BD90086758600E591C2E4F591907FAA74BE
:0E0BE70002F0D086D0D0D083D082D0F0D0E003
:010BF50032CD
:0E0BF600C0E0C0F0C082C083C0D075D000C087
:0E0C040086758600E591C2E4F591907FA97493
:0E0C120004F0D086D0D0D083D082D0F0D0E0D5
:010C200032A1
:0E0C2100C0E0C0F0C082C083C0D075D000C05B
:0E0C2F0086758600E591C2E4F591907FAA7467
:0E0C3D0004F0D086D0D0D083D082D0F0D0E0AA
:010C4B003276
:0E0C4C00C0E0C0F0C082C083C0D075D000C030
:0E0C5A0086758600E591C2E4F591907FA9743D
:0E0C680008F0D086D0D0D083D082D0F0D0E07B
:010C7600324B
:0E0C7700C0E0C0F0C082C083C0D075D000C005
:0E0C850086758600E591C2E4F591907FAA7411
:0E0C930008F0D086D0D0D083D082D0F0D0E050
:010CA1003220
:0E0CA200C0E0C0F0C082C083C0D075D000C0DA
:0E0CB00086758600E591C2E4F591907FA974E7
:0E0CBE0010F0D086D0D0D083D082D0F0D0E01D
:010CCC0032F5
:0E0CCD00C0E0C0F0C082C083C0D075D000C0AF
:0E0CDB0086758600E591C2E4F591907FAA74BB
:0E0CE90010F0D086D0D0D083D082D0F0D0E0F2
:010CF70032CA
:0E0CF800C0E0C0F0C082C083C0D075D000C084
:0E0D060086758600E591C2E4F591907FA97490
:0E0D140020F0D086D0D0D083D082D0F0D0E0B6
:010D2200329E
:0E0D2300C0E0C0F0C082C083C0D075D000C058
:0E0D310086758600E591C2E4F591907FAA7464
:0E0D3F0020F0D086D0D0D083D082D0F0D0E08B
:010D4D003273
:0E0D4E00C0E0C0F0C082C083C0D075D000C02D
:0E0D5C0086758600E591C2E4F591907FA9743A
:0E0D6A0040F0D086D0D0D083D082D0F0D0E040
:010D78003248
:0E0D7900C0E0C0F0C082C083C0D075D000C002
:0E0D870086758600E591C2E4F591907FAA740E
:0E0D950040F0D086D0D0D083D082D0F0D0E015
:010DA300321D
:0E0DA400C0E0C0F0C082C083C0D075D000C0D7
:0E0DB20086758600E591C2E4F591907FA974E4
:0E0DC00080F0D086D0D0D083D082D0F0D0E0AA
:010DCE0032F2
:0E0DCF00C0E0C0F0C082C083C0D075D000C0AC
:0E0DDD0086758600E591C2E4F591907FAA74B8
:0E0DEB0080F0D086D0D0D083D082D0F0D0E07F
:010DF90032C7
:0E0DFA0012010001FF00FF40C0BA3661010087
:040E080001020301DF
:0E0E0C00090245000101004000090400000336
:0E0E1A00FF00FF00070581024000000705826F
:0E0E280002400000070502024000000904001D
:0E0E36000103FF00FF000705810340000A07CB
:0D0E44000582024000000705020240000088
:020E5100590E38
:020E53005D0E32
:020E55006B0E22
:020E5700890E02
:040E5900040300008E
:0E0E5D000E0342006100790063006F006D001B
:0E0E6B001E0355005300420046004C00450097
:0E0E79005800200028004100460053004B00A6
:020E8700290040
:0E0E8900020300000000000000000000000056
:0E0E970000000000000000000000000000004D
:060EA50000000000000047
:00000001FF
